:020000040800F2
:10000000800C0020E5050008E9030008EB03000868
:10001000EF030008F3030008F703000800000000E6
:10002000000000000000000000000000FB030008CA
:10003000FD03000800000000FF03000801040008A1
:10004000FF050008FF050008FF050008FF05000880
:10005000FF050008FF050008BF200008FF05000895
:10006000FF050008FF050008FF050008FF05000860
:10007000FF050008FF050008FF050008FF05000850
:10008000FF050008FF050008FF050008FF05000840
:10009000FF050008FF050008FF050008CF20000845
:1000A000FF0500087D1E0008FF050008FF05000889
:1000B000FF050008FF050008FF050008FF05000810
:1000C000FF050008FF050008FF050008FF05000800
:1000D000FF05000891140008FF050008355D0008C1
:1000E000DF200008FF050008FF050008FF050008E5
:1000F000FF050008FF050008FF050008FF050008D0
:10010000FF050008FF050008FF050008FF050008BF
:10011000FF050008FF050008FF050008FF050008AF
:10012000FF050008FF050008FF050008FF0500089F
:1001300000F002F800F073F80AA090E8000C824486
:100140008344AAF10107DA4501D100F068F8AFF263
:10015000090EBAE80F0013F0010F18BFFB1A43F0A5
:100160000103184738BC000058BC00000A444FF097
:10017000000C10F8013B13F0070408BF10F8014B06
:100180001D1108BF10F8015B641E05D010F8016B4B
:10019000641E01F8016BF9D113F0080F1EBF10F8AF
:1001A000014BAD1C0C1B09D16D1E58BF01F801CBD2
:1001B000FAD505E014F8016B01F8016B6D1EF9D555
:1001C0009142D6D37047000000230024002500266A
:1001D000103A28BF78C1FBD8520728BF30C148BFAA
:1001E0000B607047662909F03482642906F0A0800C
:1001F000782906F0D980002070471FB506F016FE5A
:1002000004000020002108F0F7F8401C6060002086
:10021000002108F0DBF8E0601FBD10B510BD07F04D
:10022000F3F81146FFF7E9FF00F00EF807F01AF9AE
:1002300003B4FFF7F2FF03BC05F0F2FC002100E07D
:10024000491C8142FCD370478AB0002401F06AF84F
:100250004FF4A06000F0E6F901F002FF02F010F99F
:100260004FF4165001F0C8F84FF41651242005F051
:10027000E5FC05F049FF002140F60F6001F0E4F9CC
:1002800001F04CF901F081F902F0A1FB40F22F10CE
:10029000354908604FF46170344908606920344979
:1002A000086008203349086014203349086003209F
:1002B0003249086002E032A005F0F2FF04F094FC3D
:1002C0000028F8D141F61F41312001F048FA4AE0F8
:1002D0003048006808F014FE05462A460B462EA159
:1002E00002A805F0E9FF0C2302AA2321002002F056
:1002F00098F8204803681E482AA1026802A805F061
:10030000DBFF0C2302AA1421002002F08AF8174810
:100310000368154827A1026802A805F0CDFF0C2349
:1003200002AA0521002002F07CF8264800780090FF
:10033000254803782548027825A102A805F0BCFFCE
:100340000C2302AA3221002002F06BF801F0F2FE29
:10035000641CB4F5FA7F04D101F02BFF01F0EAFE32
:10036000002405F00BFDB3E7980000209C0000205E
:10037000A8000020AC000020A0000020A400002065
:100380004D505536303530204552524F520D0A20CF
:10039000200D0D00B0000020416E676C653A2566A7
:1003A00000000000565F503A25642C20565F493A01
:1003B00025640000425F503A256420425F443A259C
:1003C000642000001D0100201E0100201F010020EC
:1003D000545F4C3A256420565F4C3A256420425FB6
:1003E0004C3A256420000000704700BFFEE700BFC4
:1003F000FEE700BFFEE700BFFEE7704770477047AB
:10040000704700000CB50020019000906C48006817
:1004100040F480306A49086000BF6948006800F411
:10042000003000900198401C0190009818B9019884
:10043000B0F5A06FF1D16248006800F4003010B14F
:100440000120009001E0002000900098012843D195
:100450005C48006840F010005A490860084600688F
:1004600020F0030008600846006840F002000860C1
:10047000534840685249486008464068486008460A
:10048000406840F4806048600846406820F47C1072
:1004900048600846406840F4E81048600846006834
:1004A00040F08070086000BF4548006800F00070B0
:1004B0000028F9D04248406820F0030040494860D5
:1004C0000846406840F00200486000BF3C48406871
:1004D00000F00C000828F9D10CBD10B5FFF792FF11
:1004E00010BD10B53648006840F00100344908607E
:1004F0000846406834490840314948600846006869
:10050000324908402E4908600846006820F48020DF
:1005100008600846406820F4FE0048604FF41F0061
:100520008860FFF7DAFF4FF000602949086010BDCE
:1005300010B5002100200022214B5B6803F00C0164
:1005400021B1042906D0082928D107E0214B224CEB
:10055000236027E01F4B204C236023E0184B5B688F
:1005600003F47010164B5B6803F48032022303EB34
:10057000904022B9194B4343174C23600DE0104BB8
:100580005B6803F4003323B1144B4343124C2360E4
:1005900003E0104B4343104C236003E00D4B0E4C23
:1005A000236000BF00BF064B5B68C3F303130C4C12
:1005B000E15C094B1B68CB40074C236010BD000079
:1005C00000100240002002400000FFF8FFFFF6FE8E
:1005D00008ED00E000127A000C00002000093D0048
:1005E000100000200948804709480047FEE7FEE761
:1005F000FEE7FEE7FEE7FEE7FEE7FEE7FEE7FEE7D3
:1006000004480549054A064B70470000E30400080A
:100610003101000880060020800C002080080020A6
:100620008008002031490143314A1160704770B59C
:10063000002100230F22C47804B32D4C246804F455
:10064000E064C4F5E064210AC1F10403CA404478BF
:1006500004FA03F18478144021430901254C0678FB
:10066000A155047804F01F050124AC4005786D11F4
:10067000AD0005F1E025C5F8004109E0047804F07B
:100680001F050124AC401C4D0678761145F8264024
:1006900070BD1A4A0A400243154B1B1F1A6070476F
:1006A00039B1134A121D12680243114B1B1D1A6007
:1006B00006E00F4A121D126882430D4B1B1D1A6083
:1006C0007047042808D14FF0E021096941F0040186
:1006D0004FF0E022116107E04FF0E021096921F0BD
:1006E00004014FF0E0221161704700000000FA059C
:1006F0000CED00E000E400E080E100E080FFFF1F7F
:10070000002044490860091D0860091D0860091D92
:10071000086041483F4914310860704700213D4955
:100720008279002A3AD00A46126803689A430B4637
:100730001A600A1D126803689A430B1D1A60027939
:1007400011440A6803681A430A60324A0832126880
:1007500003689A432F4B08331A601A1D1268036806
:100760009A432C4B0C331A604279102A0ED11A1F6F
:10077000126803681A43274B08331A601A1D12685F
:1007800003681A43234B0C331A600DE02149427968
:1007900011440A6803681A430A6005E002791144AB
:1007A0000A6803689A430A6070470021016001717A
:1007B0000C2141710021817170471649103109687F
:1007C0000143144A10321160704701460020114A5B
:1007D000143212680A400AB1012000E0002070477C
:1007E0000C49143108607047014600200022094B73
:1007F0001B6803EA0102074B14331B680B4013B15B
:100800000AB1012000E0002070470249143108605D
:100810007047000000040140FFFF0F0010B50446C0
:10082000CC48844208D10121042000F02DFB002196
:10083000042000F029FB46E0C748844208D101218A
:10084000082000F021FB0021082000F01DFB3AE009
:10085000C248844208D10121102000F015FB00217C
:10086000102000F011FB2EE0BD48844208D1012188
:10087000202000F009FB0021202000F005FB22E0F1
:10088000B848844208D10121402000F0FDFA00213F
:10089000402000F0F9FA16E0B348844208D1012163
:1008A000802000F0F1FA0021802000F0EDFA0AE04B
:1008B000AE48844207D10121801500F0E5FA0021FD
:1008C000A01500F0E1FA10BD10B50121084600F0B6
:1008D000DBFA0021012000F0D7FA10BD2DE9F0412C
:1008E000024600250026002000230024002791F85E
:1008F00003C00CF00F0591F803C00CF0100CBCF114
:10090000000F03D091F802C04CEA050591F800C031
:10091000BCF1000F31D0146800202BE04FF0010C27
:100920000CFA00F3B1F800C00CEA03069E4220D195
:1009300083004FF00F0C0CFA03F7BC4305FA03FCDD
:100940004CEA040491F803C0BCF1280F06D14FF023
:10095000010C0CFA00FCC2F814C00AE091F803C0C4
:10096000BCF1480F05D14FF0010C0CFA00FCC2F8A5
:1009700010C0401C0828D1D31460B1F800C0BCF1ED
:10098000FF0F34DD546800202EE000F1080C4FF01A
:10099000010808FA0CF3B1F800C00CEA03069E4205
:1009A00021D183004FF00F0C0CFA03F7BC4305FA7A
:1009B00003FC4CEA040491F803C0BCF1280F05D1F4
:1009C00000F1080C08FA0CF8C2F8148091F803C082
:1009D000BCF1480F07D100F1080C4FF0010808FAEC
:1009E0000CF8C2F81080401C0828CED35460BDE833
:1009F000F0814FF6FF710180022181700421C170E6
:100A000070470246002093680B400BB1012000E0C4
:100A1000002070470146886880B270470246002077
:100A2000D3680B400BB1012000E000207047014665
:100A3000C86880B2704701617047416170470AB170
:100A4000016100E041617047C16070474FF480323E
:100A50000A438261816182618269826970470246CC
:100A60000020434B18684FF68073184040EA02108C
:100A700008433F4B186070473E49C8617047F0B566
:100A80000A46002300240021002500F00046B6F1AC
:100A9000004F02D1364EF16901E0354E7168C0F366
:100AA000034583B200F44016B6F5401F08D121F08B
:100AB00070612F4E766826F070662D4F7E6012E0D2
:100AC00000F48016B6F5801F06D1032606FA05F459
:100AD000A14341F0706106E0460D360103FA06F6C7
:100AE000B14341F0706122B1460D360103FA06F6BA
:100AF000314300F00046B6F1004F02D11C4EF161C7
:100B000001E01B4E7160F0BD30B500228B071C0F59
:100B10000F2303FA04F2164B08338C1053F82430D9
:100B20009343134C08348D1044F8253023468C1021
:100B300053F824308C07240F00FA04F423430C4CA0
:100B400008348D1044F8253030BD0A49DC31086086
:100B50007047000000080140000C014000100140F7
:100B60000014014000180140001C01400020014019
:100B70000000014000002042DF48006840F0010012
:100B8000DD49086008464068DC490840DA494860A9
:100B900008460068DA490840D749086008460068F6
:100BA00020F4802008600846406820F4FE00486079
:100BB0004FF41F0088607047CF49096821F48031E5
:100BC000CD4A11601146096821F480211160B0F509
:100BD000803F03D0B0F5802F0ED106E0C6490968EA
:100BE00041F48031C44A116007E0C349096841F407
:100BF000A021C14A116000E000BF00BF704710B5DE
:100C000001460022002300204A11012A02D1BA4CD9
:100C1000236806E0022A02D1B74C236A01E0B64CF1
:100C2000636A01F01F02012494401C400CB10120B2
:100C300000E0002010BD38B5002000900024002501
:100C400000BF3120FFF7DBFF05460098401C0090F5
:100C50000098B0F5A06F01D0002DF2D03120FFF741
:100C6000CEFF08B1012400E00024204638BD014633
:100C70000020A14A106820F0F80040EAC10010608E
:100C80007047A04908607047024600209A4B586898
:100C900020F47C1042EA01031843974B58607047D8
:100CA00098490866704701460020934A506820F032
:100CB00003000843506070478F48406800F00C0004
:100CC0007047014600208C4A506820F0F00008432D
:100CD0005060704701460020874A506820F4E06069
:100CE00008435060704701460020834A506820F452
:100CF000605040EAC1005060704729B17E4A527A84
:100D000002437D4B5A7204E07B4A527A82437A4B0B
:100D10005A7270477B49D8310860704701460020FD
:100D2000754A506820F440400843506070470021E5
:100D3000714A20321170704A82F82010012802D0C6
:100D400004280AD104E001216B4A2032117005E029
:100D50000521694A2032117000E000BF00BF7047D2
:100D60006949086070476449096A0143624A11622F
:100D70007047654944390860704730B5002100224A
:100D8000002400235C4D6D6805F00C0121B104299D
:100D900005D0082923D105E05C4D056022E05B4DBC
:100DA00005601FE0544D6D6805F47012524D6D687A
:100DB00005F48034022505EB92421CB9544D55438D
:100DC00005600BE04C4D6D6805F400351DB1504DCC
:100DD0005543056002E04D4D5543056002E04B4D23
:100DE000056000BF00BF444D6D6805F0F0010909C2
:100DF000484D6B5C0568DD4045603F4D6D6805F40E
:100E0000E061090A434D6B5C4568DD4085603A4D01
:100E10006D6805F46051C90A3E4D6B5C4568DD4064
:100E2000C560354D6D6805F44041890B3A4D6B5CEA
:100E3000C568B5FBF3F5056130BD29B12E4A52698D
:100E400002432D4B5A6104E02B4A526982432A4BDC
:100E50005A61704729B1284A92690243264B9A6128
:100E600004E0254A92698243234B9A61704729B175
:100E7000214AD2690243204BDA6104E01E4AD2695A
:100E800082431D4BDA61704729B11B4AD268024385
:100E9000194BDA6004E0184AD2688243164BDA60D4
:100EA000704729B1144A12690243134B1A6104E0D6
:100EB000114A12698243104B1A6170471249403936
:100EC000086070470F49C86470470B49C871704784
:100ED0000948406A40F080700749486270470146FF
:100EE0000020054A92680A400AB1012000E0002073
:100EF0007047014988727047001002400000FFF8F7
:100F0000FFFFF6FE000042428004424200127A00D7
:100F100000093D00200000203000002010B50446EC
:100F2000FB48844209D101218803FFF7ADFF00216E
:100F30004FF48040FFF7A8FF32E0F648844209D121
:100F400001214804FFF7ADFF00214FF40030FFF707
:100F5000A8FF25E0F048844209D101218804FFF769
:100F6000A0FF00214FF48020FFF79BFF18E0EB4823
:100F7000844209D10121C804FFF793FF00214FF4F7
:100F80000020FFF78EFF0BE0E548844208D10121E5
:100F90000805FFF786FF00214FF48010FFF781FF5F
:100FA00010BD2DE9F04786B005460E460024A24646
:100FB00000BFA1460027B08900B100BF2F462C8A90
:100FC0004CF6FF700440F08804432C82AC894EF646
:100FD000F3100440B0883189084371890843044301
:100FE000AC81AC8A4FF6FF400440B0890443AC8228
:100FF00001A8FFF7C2FEC648874202D1DDF810A063
:1010000001E0DDF80CA0A88900F4004040B10AEB33
:10101000CA0000EB0A1031684900B0FBF1F807E0A4
:101020000AEBCA0000EB0A1031688900B0FBF1F846
:101030006420B8FBF0F004012009642101FB108951
:10104000A88900F4004040B1322000EBC900B0FB99
:10105000F1F000F00700044308E0322000EB091033
:101060006421B0FBF1F000F00F0004432C8106B0C6
:10107000BDE8F0874FF41651016000218180C180E6
:1010800001810C21418100218181704710B5024608
:101090000020108A4FF2FF0318400B884C8823432E
:1010A0008C882343CC8823431843108210BD002131
:1010B000018041808180C180704721B1828942F4E2
:1010C0000052828104E082894DF6FF731A408281CA
:1010D0007047F0B50346002400260025002040F6A6
:1010E0006A17B94200D100BF1846C1F3421401F09B
:1010F0001F06012707FA06F5012C01D10C3004E088
:10110000022C01D1103000E014301AB107682F43CF
:10111000076002E00768AF430760F0BD1AB1838A39
:101120000B43838202E0838A8B4383827047028A67
:101130004FF6F0731A400282028A0A430282704715
:1011400082894FF2FF731A40828182890A43828129
:10115000704721B1828942F00202828104E08289D3
:101160004FF6FD731A4082817047028A4FF6DF7393
:101170001A400282028A0A430282704721B1028A1F
:1011800042F48042028204E0028A4BF6FF731A4066
:1011900002827047C1F30802828070470146888846
:1011A000C0F308007047818941F0010181817047D7
:1011B000028BD2B20283028B42EA01220283704781
:1011C000028B02F47F420283028B0A430283704740
:1011D00021B1828A42F02002828204E0828A4FF6A4
:1011E000DF731A408282704721B1828A42F0100276
:1011F000828204E0828A4FF6EF731A40828270473F
:1012000021B1828A42F00802828204E0828A4FF68B
:10121000F7731A408282704721B1828942F40042FA
:10122000828103E08289C2F30E028281704721B17C
:10123000828A42F40062828204E0828A4FF2FF7363
:101240001A4082827047828A4FF6FB731A4082826C
:10125000828A0A438282704721B1828A42F0020266
:10126000828204E0828A4FF6FD731A4082827047C0
:1012700002460020B1F5007F00D100BF13880B406B
:101280000BB1012000E00020704701F40072B2F5BC
:10129000007F00D100BFCA430280704770B502468C
:1012A000002400230025002040F66A16B14200D138
:1012B00000BFC1F3421501F01F03012606FA03F334
:1012C000012D02D19689334006E0022D02D1168A03
:1012D000334001E0968A33400C12012606FA04F4EA
:1012E0001688344013B10CB1012000E0002070BD1D
:1012F00010B50022002340F66A14A14200D100BFBD
:101300000A1201249440A3B2DC43048010BD000003
:10131000003801400044004000480040004C0040BC
:101320000050004010B56FF00400FFF7CAF92E48D6
:1013300000682E49B0FBF1F02D490870084600788E
:1013400000EB4001C1EBC0104FF6FF7101EAC00095
:101350002849088010BD0146254A12784A434FF0BB
:10136000E0235A6100229A611A46126942F0010292
:101370001A6100BF4FF0E022106900F001021AB1BB
:1013800000F48032002AF5D04FF0E022126922F0FA
:1013900001024FF0E0231A6100229A617047014672
:1013A000144A12884A434FF0E0235A6100229A619E
:1013B0001A46126942F001021A6100BF4FF0E022A2
:1013C000106900F001021AB100F48032002AF5D051
:1013D0004FF0E022126922F001024FF0E0231A617F
:1013E00000229A61704700000C00002000127A0071
:1013F000340000203600002010B586B004460121DC
:1014000044F20400FFF726FD4FF40070ADF814001D
:1014100003208DF8160018208DF8170005A93B4809
:10142000FFF75CFA4FF48060ADF8140004208DF8EB
:10143000170005A93548FFF751FA25208DF800005F
:1014400003208DF801008DF8020001208DF80300C3
:101450006846FFF7ECF801940020ADF80800ADF8FD
:101460000A00ADF80C00ADF810000C20ADF80E002D
:1014700001A92748FFF795FD012240F22551244894
:10148000FFF727FE01212248FFF717FE06B010BD27
:1014900010B540F225511E48FFF700FF10B31C485D
:1014A000FFF77CFEC4B21B48008800F40040C8B9B6
:1014B0001848008800F4804060B10A2C03D0002056
:1014C0001449088020E01348008840F40040114986
:1014D000088019E00D2C06D10E48008840F48040A9
:1014E0000C49088010E00B480088C0F30D000A4941
:1014F0000C5408480088401C0649088008460088AB
:10150000C72801DD0020088010BD00000008014050
:101510000038014038000020300100203D48C069FB
:1015200040F001003B49C8610846806940F0040072
:1015300088613948006820F0FF0037490860084694
:10154000006840F0440008600020C90408854FF698
:10155000FE7088850846008B40F00100088308462D
:10156000008B40F4807008830846008C088408468D
:10157000008C08840846008940F003000881084672
:10158000008840F00100088070472248C06940F0A0
:1015900004002049C8610846806940F0080088615D
:1015A0001E48006820F07F401C490860084600681B
:1015B00040F0884008600020194908804FF6FE700E
:1015C000091D088016481038008840F001001449B1
:1015D000103908800846008840F480700880104860
:1015E000083800880E4908390880084600880880B5
:1015F0000B482038008840F0030009492039088052
:1016000007482838008840F001000549283908803B
:10161000704700000010024000080140000C01402B
:10162000280800403148806940F008002F4988614F
:101630002F48006880B22E490860084600682D498E
:1016400008432B490860704700B503460A46FFF778
:10165000E9FF2648C06940F002002449C8610846F5
:10166000806940F0080088612148001F006820F070
:10167000FF001F49091F08600846006840F0BB00D2
:1016800008601D480380001F02801B481038008836
:1016900040F4C0401849103908800846008840F0DE
:1016A000600008800846008840F400600880084612
:1016B000008840F008000880081D008840F4805031
:1016C000091D08800846008840F4807008800A4898
:1016D0002C38008840F0800007492C3908800846E3
:1016E000008840F00100088000BD000000100240AA
:1016F000040C0140000022222C04004038B50546AD
:101700000C46FC48C06940F00400FA49C861FA4838
:101710000580001F0480F8482038008840F0010050
:10172000F549203908800846008840F040000880CC
:101730001E208DF8000002208DF801008DF80200B7
:1017400001208DF803006846FEF771FFEA482C3847
:10175000008840F00100E8492C39088038BD38B5D0
:1017600005460C46E348806940F40060E149886121
:10177000E2480580001F0480E0482038008840F0DF
:101780000100DE49203908800846008840F040000A
:10179000088019208DF8000002208DF801008DF8D6
:1017A000020001208DF803006846FEF740FFD34891
:1017B0002C38008840F00100D0492C39088038BD11
:1017C0000146002901DA484200E0084670472DE949
:1017D000F843CB480068002812DDC9480068FFF7CD
:1017E000EFFF804607F087F806460022C54B06F05B
:1017F000FBFE044607F050F83230C349086012E09F
:10180000BF480068FFF7DCFF804607F074F8064623
:101810000022BC4B06F0E8FE044607F03DF8C0F19C
:101820003200B9490860B9480068002812DDB7489D
:101830000068FFF7C5FF804607F05DF80646002206
:10184000B04B06F0D1FE044607F026F83230B0491E
:10185000086012E0AD480068FFF7B2FF804607F06D
:101860004AF806460022A74B06F0BEFE044607F0E3
:1018700013F8C0F13200A6490860A648006807F0D6
:10188000CFFC0446A448006807F035F807464FF03F
:101890003332A24B06F0A8FE054606F0FDFF814656
:1018A0004B469B4800940268974801689CA004F04E
:1018B000F7FCBDE8F88300B503460A46002B07DABB
:1018C00001209B49086000209A49C1F8B80106E050
:1018D00000209749086001209649C1F8B801002A04
:1018E00008DD012092490C39086000209149C1F8B7
:1018F000B40107E000208E490C39086001208D49B1
:10190000C1F8B4011846FFF75BFF8B490880104609
:10191000FFF756FF8849091D088000BD7848006818
:10192000864909684942884204DA8448006840428E
:10193000734908607248006880490968884203DD7D
:101940007E4800686E490860704800687B490968F5
:101950004942884204DA7948006840426B4908608D
:101960006A48006875490968884203DD7348006861
:101970006649086070472DE9F04F89B005460E466C
:101980009146C8246E480078012803D06D4800783D
:10199000012822D16C480068401C6B49086001286E
:1019A00004D1A819FFF70CFF684908606748006870
:1019B0004FF4FA6191FBF0F0654908600846006851
:1019C000032802DA032008600FE0614800680A2853
:1019D0000BDD0A205E49086007E003205C490860CF
:1019E0000020594908605949086055480078012885
:1019F00007D15848006856490968084455490860A5
:101A00000EE050480078012807D15248006850493C
:101A10000968401A4F49086002E000204D490860FB
:101A20004C480068A04201DD4A480460494800680B
:101A30006142884202DA60424649086046480068CE
:101A400046490968A0EB010A4548006850444449EA
:101A50000860084600683F490968401A4049086024
:101A6000084600680A2802DD0A20086008E03C48B1
:101A7000006810F10A0F03DA6FF0090038490860B6
:101A80003848006806F04EFF07460022364B06F045
:101A90005DFFCDE90201484607F032FA0746002211
:101AA000314B06F053FFCDE90001DDE9022306F0DA
:101AB0009BFDCDE9040106F0B5FC294907900968B2
:101AC0002A4A126801FB02F007F0E6FB069007992C
:101AD00007F04AFD834607F0A3FB25490860084646
:101AE000006824490968884246DD22480068204988
:101AF00008604DE0001002402C0800402C2C0140F2
:101B00007000002000805140BC00002074000020C4
:101B1000C0000020B00000203C00002033332940EA
:101B20007B4125643A25643A25643A25647D240086
:101B3000BC812142008021423C04004094000020EE
:101B40002401002025010020D4000020CC0000202A
:101B5000D0000020C40000204000002044000020ED
:101B60006C000020A40000200000F03FA000002036
:101B7000C80000204C000020FD480068FD490968AD
:101B80004942884204DAFB4800684042F84908604C
:101B9000F9480078012803D0F8480078012804D1DA
:101BA000F348006809B0BDE8F08F0020FAE72DE99E
:101BB000FF5FF3480078012804D1F2480068F24939
:101BC00008600CE0F1480078012805D1ED48006874
:101BD0004042ED49086002E00020EB490860EC4813
:101BE0000068EC4909680844EB490860EB48006864
:101BF00006F081FE0646EA4AEA4B06F0A7FE0446D6
:101C000006F04AFEE5490860E348006806F073FE06
:101C10008246E34AE44B06F099FE06460F46DF484B
:101C2000006806F068FE804632463B4606F02CFC13
:101C3000044606F031FED9490860DC4800680968AE
:101C40000844DA49086008460068CF490968084432
:101C5000D649086008460068D549884202DD084632
:101C6000D2490860D1480068D1494942884202DA25
:101C70000846CE490860CF48006806F03CFE06469C
:101C80000022CD4B06F062FECDE90201C748006894
:101C900006F031FE064600224FF0804306F056FE65
:101CA000CDE90001DDE9022306F09EFC04460D4665
:101CB000BA490968C14A126801FB02F006F01BFE2E
:101CC000804622462B4606F0DFFB824606F0E4FD06
:101CD000BB4908600846006804B0BDE8F09F2DE9E4
:101CE000F34F83B0039807F00BF906460022B24B7E
:101CF00007F01CF8044606F095FBB2490860B248AC
:101D0000006807F0E1FA0090049907F025FB0190C4
:101D100007F0F6F880460022AC4B06F065FC04465E
:101D20000D46AB48006807F0CFFA8146A548016828
:101D3000484607F011FB804607F0E2F806462246C7
:101D40002B4606F0A1FB824606F0A6FD0290029803
:101D500005B0BDE8F08F2DE9F04F89B083468A4683
:101D6000504607F0CDF880469A4A9B4B06F0EEFDB0
:101D7000CDE902019948006807F0C2F8CDE90001F9
:101D8000DDE9022306F080FB0646954A954B06F0F6
:101D9000DDFDCDE9060194480168584607F0DCFAFC
:101DA000064607F0ADF8CDE90401DDE9062306F0AB
:101DB0006BFB044606F036FB8849086009B0BDE8B5
:101DC000F08F2DE9FE4F894A89498A4800F0C9FE03
:101DD000894A8A498A4800F09CFE8848B0F9000088
:101DE000404207F059FA874908608048B0F900007E
:101DF00006F081FD804689467E48B0F9000006F075
:101E00007AFD42464B46CDE9000106F0F9F9064657
:101E100000227D4B06F09AFD04467C4A7C4B06F07E
:101E2000E3FB824606F0FEFA02907448B0F9000027
:101E300006F061FD06464FF06632764B06F0D4FBA5
:101E4000044606F029FD00B26C4908800846B0F946
:101E50000000404207F020FA044621460298FFF7AE
:101E60007AFF5E4800686C4908606348B0F900007A
:101E700007F012FA69490860BDE8FE8F10B568489E
:101E8000008800F00100002871D06548008820F02B
:101E90000100634908808806808C00B23D490860D3
:101EA00000204FF0804188845E48008800B23849A5
:101EB000086000205B490880FFF783FF5A480078DC
:101EC000012808D14F48016853480068FFF707FF11
:101ED0005649086002E000205449086054480078E0
:101EE000012808D12B48016829480068FFF75FFEE8
:101EF0005049086002E000204E4908604E480078D2
:101F000001280AD145480268224801682048006833
:101F1000FFF731FD4949086002E0002047490860A9
:101F200042480068404243490968084443490968F7
:101F30000844434908603D48006840423D490968FB
:101F400008443E490968401A3E490860FFF7E6FC2C
:101F50003C4801683A480068FFF7ADFC3A48016820
:101F60000068401E384A1060002976DA6EE074E09E
:101F7000C80000204C000020240100202501002082
:101F800022010020640000206000002023010020C6
:101F90004000002044000020500000205C00002091
:101FA0009A9999999999E93F9999C93F58000020C0
:101FB000407E0500AC0000200000F03FA80000209B
:101FC00054000020680000209C00002000408F404A
:101FD000980000207B14AE47E17A743F7C0000201B
:101FE0005C8FC2F5285CEF3F780000200A000020DB
:101FF000080000200600002004000020020000204D
:1020000000000020B400002000806640F1D4C853D6
:10201000FB21094066663040B000002084000020AB
:10202000102C0140240800401D01002088000020E1
:102030001E0100208C0000201F01002090000020C5
:102040007000002074000020B800002004F038F870
:10205000FFF7BDFBC8200149086010BDB800002093
:102060001FB501210846FEF7F5FE2020ADF800005F
:1020700048208DF8030069461D48FEF72FFC052116
:102080000120FEF741FD2020029000208DF80C0079
:102090000C208DF80D0001208DF80E0002A8FEF72F
:1020A0003DFB17208DF8040001208DF805008DF808
:1020B00006008DF8070001A8FEF7B9FA1FBD10B59C
:1020C0000A20FFF76CF90120FEF79FFB10BD10B549
:1020D0000A20FFF764F92020FEF797FB10BD10B52A
:1020E0000A20FFF75CF94FF40040FEF78EFB10BDAD
:1020F000000C014010B5FE4B1960002214E00023D3
:10210000FC4C236000F080031BB10123241F2360DB
:1021100003E00023F74C241F23600123F54C2360C8
:102120004306180E531CDAB2082AE8DB0123F04CF0
:10213000236010BD30B500241CE004F1B001C8B22A
:102140000021FFF7D7FF00210846FFF7D3FF00214A
:102150001020FFF7CFFF002508E0E74901EBC5019C
:10216000085D0121FFF7C6FF681CC5B2802DF4DBB6
:10217000601CC4B2082CE0DB30BD00B500218D200E
:10218000FFF7B8FF00211420FFF7B4FF0021AF20B4
:10219000FFF7B0FF00BD00B500218D20FFF7AAFFBB
:1021A00000211020FFF7A6FF0021AE20FFF7A2FFBD
:1021B00000BD30B500240CE0002506E00020CE492B
:1021C00001EBC5010855681CC5B2802DF6DB601C0B
:1021D000C4B2082CF0DBFFF7ADFF30BDF0B51446FC
:1021E00000267F2801DC3F2900DDF0BD0B46CF171C
:1021F00001EB5777FF10C7F10707FAB2CF1701EBD2
:102200005777FF10A1EBC707FDB2C5F10707012300
:10221000BB40DEB24CB1B84B03EBC0039B5C334315
:10222000B54F07EBC007BB5408E0B34B03EBC0034B
:102230009B5CB343B04F07EBC007BB5400BFD4E770
:102240002DE9F04706460F4690469946DDF820A056
:1022500034460CE03D4606E0524629462046FFF74C
:10226000BDFF681CC5B24D45F6DD601CC4B24445D7
:10227000F0DDFFF75FFFBDE8F0872DE9F84F8046FE
:102280000F4616461C46BA462046E31704EB537326
:10229000DB1021464FEAE47C04EB5C7C4FEAEC0C5B
:1022A000A4EBCC0CBCF1000F02D04FF0010C01E00C
:1022B0004FF0000C6344224604EBD27C4FEA6C0CD6
:1022C00003FB0CF303F0FF0BA6F12000C6B20025C0
:1022D0004EE00C2C07D106EB4600884901EB80004C
:1022E000405D009013E0102C05D1854800EB0610EE
:1022F000405D00900BE0182C07D106EBC600814929
:1023000001EB8000405D009001E0BDE8F88F4FF0E8
:10231000000927E0009800F0800028B139464046C7
:102320000A9AFFF75BFF09E00A9808B9012000E06C
:102330000020024639464046FFF750FF009840060D
:10234000000E0090781CC7B2A7EB0A00A04205D18E
:10235000574608F1010000F0FF0806E009F101000E
:1023600000F0FF09B9F1080FD4DB00BF681CC5B24B
:102370005D45AEDB00BFC8E710B50246012000E0B6
:1023800050430B00A1F10104E1B2F9D110BD2DE9D8
:10239000FF4F81B0074691461E460E9D4FF0000A42
:1023A000002439E0301B401EC1B20A20FFF7E4FFD1
:1023B000B9FBF0F00A21B0FBF1F201FB1208BAF10F
:1023C000000F16D1701EA04213DDB8F1000F0ED120
:1023D0000120AB4605EBDB71491001FB0471009055
:1023E000C8B22B4620220299FFF747FF12E04FF0B8
:1023F000010A0120AB4605EBDB71491001FB0471BA
:102400000090C8B208F13001CAB22B460299FFF71A
:1024100034FF00BF601CC4B2B442C3DB05B0BDE8EA
:10242000F08FF8B506460F4615461C4621E004EB32
:10243000D4714910C1F18001B14202DA0026381985
:10244000C7B2C4F14000B84204DA0020064607468D
:10245000FFF7AFFE012000902A7823463946304628
:10246000FFF70BFF204604EBD07106EB6101CEB203
:102470006D1C28787E2802DC28782028D7DAF8BD61
:1024800008B501211820FEF7E5FC4FF44040ADF8F7
:10249000000010208DF8030003208DF8020069462B
:1024A0001948FEF71BFA4FF440411748FEF7C3FAEC
:1024B0004FF44070ADF8000010208DF803000320A9
:1024C0008DF8020069461148FEF708FA4FF4407192
:1024D0000E48FEF7B0FA0021AE20FFF70BFE0021F8
:1024E000D520FFF707FE00215020FFF703FE0FE085
:1024F000A4812142BC012242F801002086970008F5
:10250000FA9B0008EAA1000800100140000C0140FD
:102510000021A820FFF7EEFD00213F20FFF7EAFD94
:102520000021D320FFF7E6FD00210846FFF7E2FD7A
:1025300000214020FFF7DEFD00218D20FFF7DAFDAE
:1025400000211420FFF7D6FD00212020FFF7D2FD47
:1025500000210220FFF7CEFD0021A120FFF7CAFDD8
:102560000021C020FFF7C6FD0021DA20FFF7C2FDE1
:1025700000211220FFF7BEFD00218120FFF7BAFDE8
:102580000021EF20FFF7B6FD0021D920FFF7B2FDB3
:102590000021F120FFF7AEFD0021DB20FFF7AAFDAF
:1025A00000213020FFF7A6FD0021A420FFF7A2FDA7
:1025B0000021A620FFF79EFD0021AF20FFF79AFD26
:1025C000FFF7F7FD08BD2DE9FF4F80460C461D467D
:1025D000A346002700BF39E0002633E0029800EB55
:1025E000471010F806904FF0000A25E009F080002F
:1025F00028B12A4621464046FFF7F0FD08E00DB914
:10260000012000E00020024621464046FFF7E6FD9B
:102610004FEA49604FEA1069601CC4B2A4EB0B009A
:10262000102805D15C4608F1010000F0FF0806E023
:102630000AF1010000F0FF0ABAF1080FD6DB00BF73
:10264000701CC6B2202EC9DB781CC7B20D98874219
:10265000C2DBBDE8FF8F000010B50220FEF77BFE55
:1026600010BD9248806940F004009049886190480C
:1026700000684FF20F0188438D49086008460068E2
:1026800043F2030108438A4908608948083000681A
:1026900040F480708649083108600846006840F4BC
:1026A00000600860704710B58148006820F00F0096
:1026B0007F4908600846006840F003000860012078
:1026C0007C4908607C49C1F8AC01FFF7C5FF0020D8
:1026D00078490860FFF7C0FF00207749C1F8AC01D6
:1026E00010BD10B57248006820F00F0070490860F6
:1026F0000846006840F00300086000206D490C3176
:1027000008606D49C1F8A001FFF7A6FF01206949E3
:102710000C3108606849C1F8A001FFF79DFF10BDAA
:1027200010B500246248006820F00F00604908607E
:102730000846006840F00800086001205D49086014
:10274000FFF78AFF01205C49C1F8AC01FFF784FF65
:1027500007E0601CC4B2FA2C03DDFFF7C2FF0120C2
:1027600010BD5448803800680028F2D151490C311E
:10277000086000BFF4E710B500204E490C31086036
:102780004B48006820F00F0049490860084600687F
:1027900040F00300086000204749C1F8A001FFF79E
:1027A0005BFF012043490C310860FFF755FF002013
:1027B0004149C1F8AC0110BD10B500203D490C31B4
:1027C00008603B48006820F00F003949086008465F
:1027D000006840F00300086001203749C1F8A001FB
:1027E000FFF73AFF012033490C310860FFF734FF4F
:1027F00000203149C1F8AC0110BD70B504462C4829
:10280000006820F00F002A4908600846006840F080
:1028100003000860002027490C310860002512E001
:10282000E009244908606006040E01202249C1F82D
:10283000AC01FFF711FF00201E490C310860FFF7C3
:102840000BFF681CC5B2082DEADB70BD70B50546EC
:1028500000241748006820F00F001549086008465A
:10286000006840F008000860002615E000201149CB
:102870000C310860FFF7F0FE01200F49C1F8AC01F0
:102880006006040E0B488038006808B1601CC4B2B2
:10289000FFF7E2FE701CC6B2082EE7DB15B9FFF7A2
:1028A0008BFF01E0FFF767FF204670BD001002407C
:1028B00004080140A00121420000214270B50546F4
:1028C0000C46FFF7F0FED020FFF797FFFFF728FF39
:1028D00018B1FFF706FF012070BD2846FFF78DFFF6
:1028E000FFF71EFF2046FFF788FFFFF719FF18B11B
:1028F000FFF7F7FE0120EFE7FFF7F3FE0020EBE71D
:1029000070B504460025BC2C01DB012510E0622CCB
:1029100001DB02250CE02A2C01DB032508E0142C46
:1029200001DB042504E00A2C01DB052500E0062577
:1029300029461A20FFF7C2FF70BD70B50446B4F5F2
:102940007A7F01DD4FF47A74042C00DA04244FF40A
:102950007A7090FBF4F0401EC5B229461920FFF7AB
:10296000ADFF0546264604EBD671C1F34F00FFF7D5
:10297000C7FF70BD70B50446FFF795FED020FFF786
:102980003CFFFFF7CDFE2046FFF737FFFFF7C8FEFD
:10299000FFF789FED120FFF730FFFFF7C1FE0020CF
:1029A000FFF754FF0546FFF79CFE284670BD10B5A3
:1029B0000446E006010E1C20FFF780FF10BD10B595
:1029C0000446E006010E1B20FFF778FF10BD10B58E
:1029D000FFF747FE80216B20FFF770FF6420FEF7B2
:1029E000DEFC00216B20FFF769FF0320FFF7E7FF04
:1029F0000020FFF7DCFF3220FFF79FFF0021382087
:102A0000FFF75CFF00216A20FFF758FF0021232019
:102A1000FFF754FF80213720FFF750FF7520FFF7A5
:102A2000A9FF0446682C0BD101216B20FFF746FF5C
:102A300000216C20FFF742FF3220FFF77EFF01E00C
:102A4000012010BD0020FCE72DE9F04106460F46AD
:102A500014461D46FFF727FE002141EA4601C8B291
:102A6000FFF7CBFEFFF75CFE20B1FFF73AFE012037
:102A7000BDE8F0813846FFF7C0FEFFF751FEFFF7D3
:102A800012FE012101EB4601C8B2FFF7B6FEFFF7C7
:102A900047FE0DE0012C04D10020FFF7D7FE28707F
:102AA00003E00120FFF7D2FE2870601EC4B26D1C47
:102AB000002CEFD1FFF715FE0020D9E72DE9F84FE4
:102AC0006B46022241216820FFF7BEFF9DF80100FE
:102AD0009DF8001040EA01200FFA80FA504605F0F8
:102AE0000AFF804600224B4B05F07EFD06464A4A0F
:102AF0004A4B05F0C9FC044605F094FC834648495E
:102B0000584606F029FC044606F08AFB00B2BDE8F0
:102B1000F88F2DE9FC4104460D4616466B46062209
:102B200043216820FFF790FF0746BFB99DF80100D9
:102B30009DF8001040EA012000B220809DF80300BB
:102B40009DF8021040EA012000B228809DF805009F
:102B50009DF8041040EA012000B230803846BDE8FC
:102B6000FC812DE9FC4104460D4616466B460622C3
:102B70003B216820FFF768FF0746BFB99DF80100B9
:102B80009DF8001040EA012000B220809DF803006B
:102B90009DF8021040EA012000B228809DF805004F
:102BA0009DF8041040EA012000B230803846BDE8AC
:102BB000FC812DE9F04105460E4617469846FFF781
:102BC00072FD002141EA4501C8B2FFF716FEFFF78A
:102BD000A7FD20B1FFF785FD0120BDE8F08130465B
:102BE000FFF70BFEFFF79CFD00240CE018F8040033
:102BF000FFF703FEFFF794FD18B1FFF772FD012008
:102C0000EBE7601CC4B2BC42F0DBFFF76AFD0020BA
:102C1000E3E7000000407540A4703D0AD7434240FE
:102C20000000C84238B50446F74890F82400C0B107
:102C300014B10220009001E000200090F24A1268D6
:102C4000D17BF14A526810786B460122FFF7B1FF41
:102C500010B14FF0FF3038BD9DF80010EA484174C4
:102C600023E0E948807A10B94FF0FF30F3E724B150
:102C7000E548407C08B10020EDE714B10120009048
:102C800001E000200090E04A1268D17BDE4A5268E1
:102C900010786B460122FFF78CFF10B14FF0FF3028
:102CA000D9E79DF80010D84841740020D3E738B523
:102CB00000241FE0D4480068C07AA04204D0D24863
:102CC0000068407DA04200D112E0CF4949680878F1
:102CD0006B4601222146FFF7B7FE10B14FF0FF30DF
:102CE00038BD9DF800202146C8A003F0D9FA00BFE6
:102CF000601CC4B2C44840680079A042DADC0020FD
:102D0000EEE770B504460D46BF480068C07AA042A1
:102D100004D0BD480068407DA04202D14FF0FF3092
:102D200070BDB94840680079A04202DC4FF0FF3026
:102D3000F6E7B549496808782B4601222146FFF796
:102D400083FEEDE738B50446AF4890F82300A04273
:102D500001D1002038BD14B13020009001E00020E6
:102D60000090A948807C20B19DF8000040F002004E
:102D70000090A54890F8220020B19DF8000040F096
:102D800080000090A04A1268117D9F4A5268107816
:102D90006B460122FFF70DFF10B14FF0FF30D9E76E
:102DA000994880F823400020D4E738B5044604F061
:102DB000700010B10120009005E014B100200090D7
:102DC00001E040200090904A1268917C8E4A52683F
:102DD00010786B460122FFF7ECFE20B100218A48F3
:102DE0008172481E38BD9DF8000020F040018648E1
:102DF00001730020009004F0400020B99DF800000D
:102E000040F00400009004F0200020B99DF800007C
:102E100040F00200009004F0100020B99DF800007E
:102E200040F00100009004F0080020B99DF8000077
:102E300040F038000090744A1268D17C724A52689F
:102E400010786B460122FFF7B4FE20B100216E48D6
:102E50008172481EC6E724B1082C02D00020FFF77B
:102E600071FF69488472002101753220FEF797FADC
:102E70000020B7E738B504466348807CA04201D102
:102E8000002038BD002C46D05F4A126811795E4A96
:102E9000526810786B460122FFF7D6FD10B14FF053
:102EA000FF30EEE79DF8000020F020000090564A29
:102EB00012681179544A526810786B460122FFF764
:102EC00078FE10B14FF0FF30DBE70320FEF767FA22
:102ED000022000904C4890F8220020B19DF800009C
:102EE00040F080000090484890F8230020B19DF801
:102EF000000040F030000090434A1268117D424AC1
:102F0000526810786B460122FFF753FE002851D01B
:102F10004FF0FF30B5E73C4A126811793A4A5268DF
:102F200010786B460122FFF78FFD10B14FF0FF3094
:102F3000A7E73548807A00F0010028B19DF800002D
:102F400040F02000009004E09DF8000020F02000F8
:102F500000902D4A126811792B4A526810786B46FE
:102F60000122FFF726FE10B14FF0FF3089E7032062
:102F7000FEF715FA244890F8220010B18020009046
:102F800001E000200090204890F8230020B19DF837
:102F9000000040F0300000901B4A1268117D1A4A70
:102FA000526810786B460122FFF703FE10B14FF014
:102FB000FF3066E714488474002062E708B51248C1
:102FC000807A10B94FF0FF3008BD002000900E4A03
:102FD0001268D17B0C4A526810786B460122FFF7C9
:102FE000E8FD10B14FF0FF30EEE7074A1268517963
:102FF000054A526810786B460122FFF7DAFD68B186
:103000004FF0FF30E0E70000D8000020252335789E
:103010003A20252335780D0A00000000F84A12688E
:103020001179F74A526810786B460122FFF7C1FD0B
:1030300010B14FF0FF30C7E7F14890F824000028A6
:1030400053D00C200090EE4A12681179EC4A526875
:1030500010786B460122FFF7ACFD10B14FF0FF3046
:10306000B2E73220FEF79BF9C0200090E448807A56
:1030700000F0010020B19DF8000040F02000009019
:10308000DF4A12681179DE4A526810786B460122D5
:10309000FFF78FFD10B14FF0FF3095E7D848407C27
:1030A00010B10220009001E000200090D44A126884
:1030B000D17BD34A526810786B460122FFF779FD25
:1030C00010B14FF0FF307FE700200090CC4A12682B
:1030D0005179CB4A526810786B460122FFF769FD9F
:1030E000002855D04FF0FF306EE704200090C44A0E
:1030F00012681179C24A526810786B460122FFF7B4
:1031000058FD10B14FF0FF305EE7BD48807C20B91C
:10311000BB48807A00F0010010B94020009001E027
:1031200060200090B64A12681179B54A526810784A
:103130006B460122FFF73DFD10B14FF0FF3043E732
:103140003220FEF72CF9AE48407C10B101200090EF
:1031500001E000200090AA4A1268D17BA84A526878
:1031600010786B460122FFF724FD10B14FF0FF30BD
:103170002AE7A34A12685179A14A52681078A04BF5
:1031800010330122FFF715FD10B14FF0FF301BE7A0
:10319000002019E770B50446002624F00104984881
:1031A00090F8240008B1002070BD9548807A10B9CD
:1031B0004FF0FF30F8E79248057C807A2040904934
:1031C00008740846007CA04202D04FF0FF3600E0B1
:1031D000002614B98A48007D18B10120FFF722FDAE
:1031E00002E00020FFF71EFD3CB1FFF7E7FE20B133
:1031F000834805744FF0FF30D6E73046D4E738B542
:1032000004467F48807A10B94FF0FF3038BDBC2C9F
:1032100002DB0120009015E0622C02DB022000900E
:1032200010E02A2C02DB032000900BE0142C02DBC0
:103230000420009006E00A2C02DB0520009001E04B
:10324000062000906E48C07A9DF80010884201D197
:103250000020DBE76A4A12689178694A5268107860
:103260006B460122FFF7A5FC10B14FF0FF30CDE710
:103270009DF800106248C1720020C7E738B50446C7
:10328000282C02DD4FF0FF3038BDDCB90020FFF7FD
:1032900059FD00208DF8000007208DF80100584AE4
:1032A0001268917C564A526810786B460222FFF7EA
:1032B00080FC10B14FF0FF30E6E700215048017567
:1032C0000020E1E70120FFF73DFD20208DF8000000
:1032D000012C06D100208DF801000520FFF78FFF9B
:1032E00017E0052C06DC01208DF801000520FFF712
:1032F00086FF0EE0142C06DC02208DF801000A2067
:10330000FFF77DFF05E003208DF801001420FFF793
:1033100076FF9DF80100072101EB8010C0B28DF807
:103320000100374A1268917C354A526810786B4622
:103330000222FFF73EFC10B14FF0FF30A4E7082156
:103340002F48817200210173012101750020FFF7D0
:1033500021FF002098E738B504462948807A10B943
:103360004FF0FF3038BD264890F8240010B14FF0E0
:10337000FF30F7E72248007D50B134B1282C04DC3F
:10338000E0B2FFF77BFF0020ECE70020FFF776FFBD
:10339000042C01DA042404E0B4F57A7F01DD4FF453
:1033A0007A744FF47A7090FBF4F0401EC0B2009033
:1033B000134A12685178124A526810786B460122FB
:1033C000FFF7F7FB10B14FF0FF30CBE79DF800009F
:1033D000401C4FF47A7191FBF0F081B20848C18132
:1033E0000146C9894810FFF70AFF0020BAE738B53F
:1033F00004460348807A28B94FF0FF3038BD0000FA
:10340000D8000020022C06D0042C07D0082C08D0AD
:10341000102C0CD108E0002000900BE00820009058
:1034200008E01020009005E01820009002E04FF026
:10343000FF30E3E700BFF948407A9DF80010B0EB99
:10344000E10F01D10020D9E7F44A1268D179F34A9B
:10345000526810786B460122FFF7ABFB10B14FF0BA
:10346000FF30CBE79DF80000C110EC48417200200E
:10347000C4E738B50446E948807A10B94FF0FF3008
:1034800038BDFA2C09D0B4F5FA7F09D0B4F57A7FAB
:1034900009D0B4F5FA6F0CD108E0002000900BE0E1
:1034A0000820009008E01020009005E0182000900F
:1034B00002E04FF0FF30E3E700BFD848007A9DF804
:1034C0000010B0EBE10F01D10020D9E7D34A126818
:1034D0009179D24A526810786B460122FFF769FB56
:1034E00010B14FF0FF30CBE79DF80000C010CB4982
:1034F00008720020C4E71CB580208DF80000C74A80
:103500001268917CC54A526810786B460122FFF719
:1035100050FB10B14FF0FF301CBD6420FDF73FFFA2
:1035200000208DF80000BD4A1268917CBB4A5268A9
:1035300010786B460122FFF73CFB10B14FF0FF30D3
:10354000EAE7B64A1268917DB44A526810786B4631
:103550000622FFF779FA10B14FF0FF30DCE79DF853
:103560000500C007400F9DF8031001F0010140EA7B
:1035700041009DF8011001F0010140EA010494B1FD
:10358000012C03D10121A548C17431E0022C03D1E3
:103590000021A248C1742BE02146A1A002F080FEC8
:1035A0004FF0FF30B8E79D4A1268D1789B4A5268C5
:1035B00010786B460122FFF747FA10B14FF0FF3049
:1035C000AAE79DF8000000F00F042CB99E4802F015
:1035D00067FE4FF0FF309FE7042C06D19BA002F05E
:1035E0005FFE01218D48C17402E000218B48C17447
:1035F000FF218A488172FF2088490872FF2187488D
:103600004172C1724FF6FF71C181FF210174817453
:103610000121017380F82210002180F823104175E8
:1036200001751630016041608160163880F8241001
:1036300080F82510C1844FF4FA60FFF71AFF10B12B
:103640004FF0FF3068E70220FFF7D1FE10B14FF0D6
:10365000FF3061E72A20FFF7D2FD10B14FF0FF30B5
:103660005AE73220FFF777FE10B14FF0FF3053E7F3
:103670000020FFF78FFD10B14FF0FF304CE7002026
:10368000FFF7F8FB10B14FF0FF3045E70020FFF7E0
:103690008CFB002040E770477CB504460D465F4830
:1036A000807A00F0700010B94FF0FF307CBD5B4AAB
:1036B0001268117B594A526810786B460622FFF750
:1036C000C3F910B14FF0FF30F0E79DF801009DF80D
:1036D000001040EA012000B220809DF803009DF810
:1036E000021040EA012000B260809DF805009DF8BC
:1036F000041040EA012000B2A08015B12846FFF76F
:10370000CAFF0020D2E77CB504460D464348807AC4
:1037100000F0080010B94FF0FF307CBD3F4A12683E
:10372000517B3E4A526810786B460622FFF78CF9AF
:1037300010B14FF0FF30F0E79DF801009DF8001048
:1037400040EA012000B220809DF803009DF802109D
:1037500040EA012000B260809DF805009DF8041049
:1037600040EA012000B2A08015B12846FFF793FF80
:103770000020D2E72DE9FE4F05460C462748807A07
:1037800018B94FF0FF30BDE8FE8F244A1268917BD4
:10379000224A5268107802AB0222FFF755F910B1A5
:1037A0004FF0FF30EFE79DF809009DF8081040EA60
:1037B000012006B214B12046FFF76DFF1749496892
:1037C000C88805F081FD154901904968B1F90800E4
:1037D00005F062FD8346304605F05EFD59460090D7
:1037E00005F0C2FE8246019905F024FC81461F497E
:1037F00005F0B2FB80464FF08F4105F0ADFD074666
:1038000005F00EFD28600020BDE710B588B0044625
:103810001CB94FF0FF3008B010BD29E0D8000020DF
:10382000556E737570706F7274656420736F667413
:10383000776172652070726F64756374207265764B
:103840002025642E0A0000004CBD000848616C660B
:103850002073656E7369746976697479207061721A
:103860007420666F756E642E0A00000000000C4222
:10387000206830B9606820B9A06810B9002008B08D
:1038800010BDFA494968087806AB03221146FFF7D4
:10389000DBF810B14FF0FF30F1E79DF81800082178
:1038A00001EB201000F00F00ADF800009DF81900AA
:1038B00001EB201000F00F00ADF802009DF81A0097
:1038C00001EB201000F00F00ADF80400206841006B
:1038D000BDF90000403091FBF0F000B2ADF81000EF
:1038E00060684100BDF90200403091FBF0F000B289
:1038F000ADF81200A0684100BDF90400403091FB12
:10390000F0F000B2ADF81400D8494968087806AB69
:1039100006221146FFF798F810B14FF0FF30AEE7DE
:103920009DF819009DF8181040EA012000B2ADF88A
:1039300008009DF81B009DF81A1040EA012000B213
:10394000ADF80A009DF81D009DF81C1040EA01200A
:1039500000B2ADF80C00BDF81000BDF80810084426
:1039600000B2ADF81000BDF81200BDF80A1008440E
:1039700000B2ADF81200BDF81400BDF80C100844F8
:1039800000B2ADF81400BDF81000000A8DF8180060
:10399000BDF81000C0B28DF81900BDF81200000A81
:1039A0008DF81A00BDF81200C0B28DF81B00BDF8EA
:1039B0001400000A8DF81C00BDF81400C0B28DF888
:1039C0001D00AA494968087806AB06221146FFF790
:1039D000F0F810B14FF0FF3051E700204FE70146FB
:1039E000A248007A30B1012807D0022809D0032864
:1039F0000FD10AE0FA2008800EE04FF4FA70088038
:103A00000AE04FF47A70088006E04FF4FA6008800C
:103A100002E00020088000BF00BF00207047014680
:103A20009248407A30B1012807D0022808D00328F4
:103A30000CD108E0022008700BE00420087008E0B8
:103A40000820087005E01020087002E04FF0FF30F9
:103A5000704700BF8548C07C18B108784006000E4A
:103A600008700020F4E701468048C07A082817D281
:103A7000DFE800F01704070A0D101318BC200880B7
:103A800013E06220088010E02A2008800DE0142056
:103A900008800AE00A20088007E00520088004E08A
:103AA00000BF00BF0020088000BF00BF002070479B
:103AB00001466E4890F8240010B14FF0FF30704777
:103AC0006A48C08908800020F9E701460020088084
:103AD000401E704701464FF0FF3070470146634873
:103AE000007A30B1012807D0022808D003280CD171
:103AF00008E05F4808600BE05E48086008E05E4848
:103B0000086005E05D48086002E04FF0FF30704754
:103B100000BF0020FBE701465448407A30B101283D
:103B200008D002280AD0032810D10BE04FF48040BF
:103B300008800EE041F69C7008800AE04FF4805047
:103B4000088006E04FF40060088002E04FF0FF308C
:103B5000704700BF4548C07C10B1088840100880FD
:103B60000020F5E701464148007C087000207047BE
:103B700001463E48807A10B10120087001E0002023
:103B800008700020704738B504463848807A10B96C
:103B90004FF0FF3038BD354A1268117C334A526805
:103BA00010786B460222FEF74FFF10B14FF0FF3046
:103BB000F0E79DF801009DF8001040EA012000B2F6
:103BC00020800020E6E72DE9FE4F07468846924612
:103BD0001D46DDF830B000260024244890F824006B
:103BE00010B1601EBDE8FE8F002028701F48807A4B
:103BF00010B94FF0FF30F5E71C48007C10B94FF0CA
:103C0000FF30EFE71948007C00F0400008B1B01C1D
:103C1000C6B21648007C00F0200008B1B01CC6B245
:103C20001248007C00F0100008B1B01CC6B20F486A
:103C3000007C00F0080008B1B01DC6B20B4A126843
:103C4000917A0A4A526810786B460222FEF7FCFE0F
:103C500010B14FF0FF30C5E79DF801009DF800104E
:103C600040EA0129B1450BDA0020BBE7D80000206B
:103C70000000034300008342333303423333834164
:103C8000FC4840684088B9EB600F17DDF94A1268BC
:103C9000517CF84A526810786B460122FEF7D4FE38
:103CA00010B14FF0FF309DE79DF8000000F01000CC
:103CB00020B1FFF783F96FF0010093E75046FFF75B
:103CC000EAFCEC4A1268D17AEA4A526810786B46EC
:103CD0003246FEF7B9FE10B14FF0FF3082E799FB94
:103CE000F6F0401E8BF8000000202870B4422AD065
:103CF000E048007C00F0080028B3601C1DF80000BC
:103D00001DF8041040EA012000B2A8F80000E01CF1
:103D10001DF80010A01C1DF8000041EA002000B2B0
:103D2000A8F80200601D1DF80010201D1DF80000FD
:103D300041EA002000B2A8F80400287840F008000A
:103D40002870A01D84B2B44213D0CA48007C00F091
:103D5000400070B1601C1DF800001DF8041040EA1E
:103D6000012000B23880287840F040002870A01C64
:103D700084B2B44213D0BF48007C00F0200070B180
:103D8000601C1DF800001DF8041040EA012000B27C
:103D90007880287840F020002870A01C84B2B442BB
:103DA00013D0B448007C00F0100070B1601C1DF806
:103DB00000001DF8041040EA012000B2B880287805
:103DC00040F010002870A01C84B200200AE7F8B56B
:103DD00004460F461646A74890F8240010B94FF045
:103DE000FF30F8BDA348807A10B94FF0FF30F8E7F4
:103DF000A04A1268917A9F4A526810786B46022254
:103E0000FEF722FE10B14FF0FF30EAE79DF8010007
:103E10009DF8001040EA0125A54203DA0020307029
:103E2000401EDEE7934840684088B5EB600F17DD21
:103E3000904A1268517C8F4A526810786B46012272
:103E4000FEF702FE10B14FF0FF30CAE79DF8000008
:103E500000F0100020B1FFF7B1F86FF00100C0E7EB
:103E6000E2B2844B1B68D97A824B5B6818783B4678
:103E7000FEF7EAFD10B14FF0FF30B2E795FBF4F02A
:103E8000401E30700020ACE701467A4880F82210CE
:103E9000002070477CB5054676494968087801AB33
:103EA00004220D21FEF7D0FD08B107207CBD9DF84E
:103EB0000700C0F301109DF8041001F0E00140EA92
:103EC000E1008DF800009DF80700C0F381009DF827
:103ED000051001F0E00140EAE1008DF801009DF8D5
:103EE000070000F003009DF8061001F0E00140EA31
:103EF000E1008DF8020000241CE01DF8040018B950
:103F0000002045F8240013E05B4845F8240006E053
:103F100055F82400594905F01FFA45F824001DF80A
:103F20000400401EC0B20DF804000028F0D100BF0C
:103F3000601CC4B2032CE0DB0020B7E72DE9FE4F84
:103F400006460F4600256846FFF7A4FF002442E01E
:103F500056F8240057F82410A0EB010ABAF1000F1C
:103F600001DB514601E0CAF10001084605F094F971
:103F700083464FF08F4105F05DF880465DF82400E0
:103F8000002105F019F916D05DF82410404605F01F
:103F900051F882464FF07E5105F0E6FA814629F04D
:103FA000004A3748416A504605F0A2FA12D2012071
:103FB000A04005430EE03248C169404605F098F93B
:103FC00005D32F48016A404605F092FA02D201203B
:103FD000A0400543641C032CBADB2846BDE8FE8FD5
:103FE0002DE9FC5F06460F460025224949680878FE
:103FF00001AB03220D21FEF727FD10B10720BDE81C
:10400000FC9F9DF8040000F01F008DF804009DF84F
:10401000050000F01F008DF805009DF8060000F077
:104020001F008DF80600002462E056F8240057F8BF
:104030002410A0EB010BBBF1000F01DB594601E09E
:10404000CBF10001084605F027F94FF08F410090B1
:1040500004F0F0FF814601A8005DC0B3084908687C
:1040600005F032F983465946064804F0E3FF8046DE
:104070000FE00000D80000207B14AE3E1D5A843FA4
:1040800070AF000800B04C45FE49404605F064F9A9
:10409000804601A8005D401EC0B201A90855002855
:1040A000F2D14146484604F0C5FF83464FF07E51A9
:1040B00005F05AFA82462AF0004BF34881695846C7
:1040C00005F016FA13D20120A04005430FE0FFE7E8
:1040D000ED480169484605F00BF905D3EA48416906
:1040E000484605F005FA02D20120A0400543641CB1
:1040F000032C9ADB284682E72DE9F04F87B005466E
:104100000C46914601208DF8100000208DF811001A
:10411000DE4A1268917CDD4A5268107804AB0222B4
:10412000FEF747FD20B14FF0FF3007B0BDE8F08F3C
:10413000C820FDF734F900208DF81000D34A12682A
:10414000D17BD24A5268107804AB0122FEF731FDD0
:1041500010B14FF0FF30E8E7CC4A12685179CB4AF2
:104160005268107804AB0122FEF723FD10B14FF026
:10417000FF30DAE7C54A1268917CC44A5268107869
:1041800004AB0122FEF715FD10B14FF0FF30CCE774
:10419000BE4A1268D17DBD4A5268107804AB012234
:1041A000FEF707FD10B14FF0FF30BEE7B74A1268C7
:1041B0001179B64A5268107804AB0122FEF7F9FC77
:1041C00010B14FF0FF30B0E70C208DF81000AF4A6F
:1041D00012681179AD4A5268107804AB0122FEF7DB
:1041E000E8FC10B14FF0FF309FE70F20FDF7D7F844
:1041F000A648806A407A8DF81000A44A1268917827
:10420000A24A5268107804AB0122FEF7D2FC10B12A
:104210004FF0FF3089E79D48806A007A8DF81000E2
:104220009A4A12685178994A5268107804AB012270
:10423000FEF7BFFC10B14FF0FF3076E7B9F1000F89
:1042400007D09248806A807A40F0E0008DF8100034
:1042500004E08E48806A807A8DF810008B4A1268DC
:1042600091798A4A5268107804AB0122FEF7A1FCCA
:1042700010B14FF0FF3058E7B9F1000F07D0834875
:10428000806AC07A40F0E0008DF8100003E07E48BC
:10429000C07A8DF810007D4A1268D1797B4A526845
:1042A000107804AB0122FEF784FC10B14FF0FF3010
:1042B0003BE7B9F1000F02D0C820FDF770F84020AD
:1042C0008DF81000714A12681179704A526810789E
:1042D00004AB0122FEF76DFC10B14FF0FF3024E774
:1042E00078208DF81000694A12685179674A52683F
:1042F000107804AB0122FEF75CFC10B14FF0FF30E8
:1043000013E761498889FDF74AF800208DF810000D
:104310005E4A126851795D4A5268107804AB0122F6
:10432000FEF747FC10B14FF0FF30FEE6574A126827
:10433000917A564A5268107804AB0222FEF784FB49
:1043400010B14FF0FF30F0E69DF811009DF810100D
:1043500040EA012B0C209BFBF0F0C6B20020A860C5
:1043600068602860A06060602060824665E0474A1F
:104370001268D17A454A5268107804AB0C22FEF7D5
:1043800063FB10B14FF0FF30CFE69DF811009DF8B0
:10439000101040EA012000B2ADF808009DF81300AB
:1043A0009DF8121040EA012000B2ADF80A009DF815
:1043B00015009DF8141040EA012000B2ADF80C0081
:1043C000BDF90810206808442060BDF90A10606833
:1043D00008446060BDF90C10A0680844A0609DF816
:1043E00017009DF8161040EA012000B2ADF8000059
:1043F0009DF819009DF8181040EA012000B2ADF8B0
:1044000002009DF81B009DF81A1040EA012000B23E
:10441000ADF80400BDF90010286808442860BDF913
:104420000210686808446860BDF90410A868084470
:10443000A8600AF1010000F0FF0AB24597DB1248BC
:10444000D0F800C02868C117090441EA10410704E8
:1044500062460023384601F0FEFE32460023CDE9D5
:10446000020101F0F8FE28600748D0F800C0686833
:10447000C117090441EA1041070462460023384687
:1044800006E0000054E3853F70AF0008D80000202C
:1044900001F0E1FE32460023CDE9020101F0DBFE2E
:1044A0006860FE48D0F800C0A868C117090441EA56
:1044B0001041070462460023384601F0CCFE324624
:1044C0000023CDE9020101F0C6FEA860F348D0F850
:1044D00004C02168C817000440EA11480F0462466E
:1044E00000233846414601F0B6FE32460023CDE9AE
:1044F000020101F0B0FE2060E848D0F804C0606816
:10450000C117090441EA10410704624600233846F6
:1045100001F0A1FE32460023CDE9020101F09BFE2D
:104520006060DE48D0F804C0A068C117090441EA01
:104530001041070462460023384601F08CFE3246E3
:104540000023CDE9020101F086FEA060A0680028EA
:1045500004DDA068A0F58030A06003E0A06800F54D
:104560008030A0600020E0E538B50446CC4890F8E3
:104570002400A04201D1002038BD24B3C84890F8DF
:10458000250010B94FF0FF30F6E70020FEF74AFB98
:104590000020FEF76FFCC249C88CFEF7DCFE00204D
:1045A0000090BF49496808786B4601222321FEF735
:1045B00000FB0121BA4880F824100120FEF732FBED
:1045C000FEF7FCFC13E00020FEF72CFBB448007C57
:1045D0000090B349496808786B4601222321FEF711
:1045E000E8FA0021AE4880F82410FEF7E7FC00202E
:1045F000C2E72DE9F04F8DB083460F4602200C90A4
:10460000A74890F8240020B10020FFF7ADFF012655
:1046100000E0002603A8FFF7E2F905A8FFF7FFF97D
:1046200001A8FFF720FA02A8FFF742FA9C4890F889
:104630000AA004A8FFF796FA002407E000223946F2
:104640005846FFF759FD00B902E0641C022CF5DB67
:1046500000BF022C01D1002528E0002407E0012240
:1046600006A909A8FFF748FD00B902E0641C022C66
:10467000F5DB00BF022C01D1002517E006A9384662
:10468000FFF75CFC00F0FF0809A95846FFF7A8FCFB
:1046900000F0FF090025B9F1000F01D145F0010537
:1046A000B8F1000F01D145F0020500BFFF207C49A1
:1046B0000872FF217A484172C1724FF6FF71C181C1
:1046C000FF218172017401210173BDF80C00FEF716
:1046D000D0FE9DF81400FEF78AFEBDF80400FEF738
:1046E0008EFDBDF80800FEF736FE5046FEF75DFB76
:1046F0009DF81000FEF74EFD16B10120FFF734FFC4
:1047000028460DB0BDE8F08FF8B504460D461646B4
:1047100016B94FF0FF30F8BD6148807A10B94FF0FC
:10472000FF30F8E720128DF80000E0B28DF80100AC
:104730009DF8010028445A4949684989884202DDA8
:104740004FF0FF30E7E7564A1268117E544A52682C
:1047500010786B460222FEF72CFA10B14FF0FF30B2
:10476000D9E7EAB24E4B1B68597D4D4B5B68187810
:104770003346FEF71EFA10B14FF0FF30CBE70020B2
:10478000C9E7F8B504460D46164616B94FF0FF3096
:10479000F8BD4348807A10B94FF0FF30F8E7201297
:1047A0008DF80000E0B28DF801009DF8010028446A
:1047B0003B4949684989884202DD4FF0FF30E7E70D
:1047C000374A1268117E364A526810786B460222C8
:1047D000FEF7EFF910B14FF0FF30D9E7EAB2304BF6
:1047E0001B68597D2E4B5B6818783346FEF72CF911
:1047F00010B14FF0FF30CBE70020C9E72DE9F043BF
:1048000085B005460E4690469946254890F8250005
:1048100020B14FF0FF3005B0BDE8F08316B94FF07E
:10482000FF30F8E7002423E0281B102801DD1020CA
:1048300000E0281B87B2321939462046FFF764FF93
:1048400010B14FF0FF30E6E701AA39462046FFF7E6
:1048500098FF10B14FF0FF30DDE730193A4601A95B
:1048600001F02EFF10B16FF00100D4E7E01984B21F
:10487000AC42D9DB4FEA28208DF8000008F0FF0099
:104880008DF80100064A1268917E054A5268107838
:104890006B460222FEF78DF938B103E070AF0008D5
:1048A000D80000204FF0FF30B5E70121FE4880F826
:1048B0002510A0F826900020ADE70146FA4890F8B0
:1048C00024000870002070474FF0FF307047024608
:1048D0004FF0FF30704701464FF0FF307047F8B59A
:1048E00005460F461446002C70D0B5F5FF5F01DD7C
:1048F000FF2605E0202D01DA012601E0C5F3471669
:1049000007B90127282C02DD4FF0FF30F8BDE6483B
:10491000407D28BBE44890F8240038B10020FFF720
:1049200023FE0121E04880F8201003E00021DE484A
:1049300080F82010DC481630FFF751F8DA481830BC
:10494000FFF76DF8D8481A30FFF78DF8D6481C30BD
:10495000FFF7AEF8D448817A81771F30FFF702F96C
:104960000020FEF75FF90020FEF788FC00208DF89C
:104970000000CD4A12689178CB4A526810786B4695
:104980000122FEF716F910B14FF0FF30BEE74020CC
:104990008DF80000C44A1268D17BC34A526810786F
:1049A0006B460122FEF705F900B165E08DF8006065
:1049B0008DF80170BC4A1268117ABB4A52681078AF
:1049C0006B460222FEF7F5F808B155E047E00520F6
:1049D000FCF7E5FCB448407A072101EBC000C0B207
:1049E0008DF80000B04A1268D179AF4A5268107849
:1049F0006B460122FEF7DDF800B13DE020208DF886
:104A00000000012C03D100208DF801000EE0052CE0
:104A100003DC01208DF8010008E0142C03DC0220E7
:104A20008DF8010002E003208DF801009DF80100DF
:104A3000072101EB8010C0B28DF801009A4A12687C
:104A4000917C994A526810786B460222FEF7B1F8C1
:104A500000B111E0012194484175002056E7924AC7
:104A60001632002103E0505C00B105E0491C0C291E
:104A7000F9D34FF0FF3049E7FF208B490872FF213F
:104A800089484172C1724FF6FF71C181FF21817265
:104A90000174012101730146887FFEF786F982497E
:104AA000C88AFEF7E6FC8049087EFEF7A0FC7E4936
:104AB000488BFEF7A4FB7C49888BFEF74CFC7A49B7
:104AC000C87FFEF767FB784890F8200010B10120FE
:104AD000FFF74AFD002174484175002016E770B5C4
:104AE00088B002A905A8FFF784FD0446032C3ED137
:104AF00001A8FEF7F3FF059804F0CEFB06460199E6
:104B000004F02AFC054604F08BFB0590069804F09F
:104B1000C3FB0646019904F01FFC054604F080FB28
:104B20000690079804F0B8FB0646019904F014FCBF
:104B3000054604F075FB079005A800F054FA684696
:104B4000FEF7E9FFBDF80010029848430290BDF857
:104B50000010039848430390BDF8001004984843A0
:104B6000049002A800F0D2FA002008B070BD012025
:104B7000FBE7014691F90020002A01DD00201EE03C
:104B800091F90020002A01DA042018E091F90120AF
:104B9000002A01DD012012E091F90120002A01DA4A
:104BA00005200CE091F90220002A01DD022006E038
:104BB00091F90220002A01DA062000E00720704760
:104BC00010B504462046FFF7D4FF0346E01CFFF76C
:104BD000D0FF43EAC00083B2A01DFFF7CAFF43EA3B
:104BE000801083B2184610BD70B50024FDF739FD62
:104BF000FEF781FC002840D17820FEF7D6F8C4B239
:104C00000CB1012070BD7820FEF7C4FAC4B20CB11B
:104C10000220F7E76420FEF79EFBC4B20CB103202C
:104C2000F0E700F045F9C4B20CB10420EAE71F48F0
:104C3000FFF7C6FF054600F045F9C4B20CB10520E8
:104C4000E0E740F2731000F07EFDC4B20CB1062024
:104C5000D8E7642000F0F0FAC4B20CB10720D1E725
:104C6000FFF73DFF04460CB10820CBE70120FFF71A
:104C70007BFCC4B21CB10920C4E70A20C2E70020B3
:104C8000C0E72DE9F04F99B004460D4616464FF0A7
:104C90007E574FF000084FF000094FF0000A12A8AD
:104CA00013A918AB0EAA03E0D800002004010020CD
:104CB000CDE9001014A916A800F0A4FE18B1012037
:104CC00019B0BDE8F08FBDF84C0000F480700028EA
:104CD0007ED00E9804F0E0FA83464FF09D4104F038
:104CE000A9F907460F9804F0D7FA83464FF09D4183
:104CF00004F0A0F98046109804F0CEFA83464FF0F5
:104D00009D4104F097F98146119804F0C5FA834655
:104D10004FF09D4104F08EF9824639464FF08040B5
:104D200004F01AFB4946059004F016FB4146079033
:104D30004FF0404004F010FB5146059004F00CFB8E
:104D40000690079904F008F9834604F0D9F8CDE9F4
:104D5000080103F00DF84FF06632544BCDE90A011B
:104D600003F0F4FDCDE90C0103F05CFB2060494643
:104D70004FF0804004F0F0FA4946029004F0ECFA5B
:104D8000414604904FF0404004F0E6FA414602905C
:104D900004F0E2FA0390049904F0E6FB83464FF036
:104DA0007E5104F0D9F8059004F0AAF8CDE9080185
:104DB00039464FF0804004F0CFFA4146039004F0AA
:104DC000CBFA494604904FF0804004F0C5FA00E069
:104DD00068E05146039004F0BFFA8346049904F05A
:104DE000BBF8059004F08CF8CDE90601DDE9082355
:104DF00003F006FA4FF066322C4BCDE90A0103F0BE
:104E0000A5FDCDE90C0103F00DFB2860514650468D
:104E100004F0A2FA49460490484604F09DFA41463F
:104E20000390404604F098FA39460190384604F061
:104E300093FA0090019904F08FF80290039904F01E
:104E400093FB8346049904F08FFB059004F058F817
:104E5000CDE908015146384604F07EFA49460490EF
:104E6000404604F079FA0390049904F075F84FF085
:104E70008041059004F070FA834604F041F8CDE9D2
:104E80000601DDE9082303F0BBF94FF06632074B5A
:104E9000CDE90A0103F05AFDCDE90C0103F0C2FA95
:104EA000306001E002200BE7002009E766A64C40D5
:104EB00010B5C8234FF48062F74940F6F630FFF78B
:104EC0009DFC10BD10B586B00446F4A000680390A8
:104ED000F3A000680290F3A000680190F2A00068BF
:104EE000009004F0030003A9085C8DF8140003A8E7
:104EF000C4F3C101405C8DF8150003A8C4F381110F
:104F0000405C8DF8160004F0030002A9085C8DF8DF
:104F1000100002A8C4F3C101405C8DF8110002A882
:104F2000C4F38111405C8DF8120005AA032140F200
:104F30002640FFF7E9FB18B14FF0FF3006B010BD77
:104F400004AA032140F22A40FFF7DEFB10B14FF024
:104F5000FF30F3E7019805900098049004F00400F6
:104F600058B19DF8140040F001008DF814009DF830
:104F7000100040F001008DF8100004F0200058B13E
:104F80009DF8150040F001008DF815009DF8110006
:104F900040F001008DF8110004F4807058B19DF8C4
:104FA000160040F001008DF816009DF8120040F048
:104FB00001008DF8120005AA03214FF48860FFF765
:104FC000A3FB10B14FF0FF30B8E704AA032140F271
:104FD0003140FFF799FB10B14FF0FF30AEE7B34817
:104FE00004810020AAE71FB50446B048007A00F00B
:104FF000030054F820000190AC48007A00F004004F
:1050000010B1019840420190A848007AC0F3C10055
:1050100054F820000290A548007A00F0200010B15A
:10502000029840420290A148007AC0F3811054F8DF
:10503000200003909D48008900F4807010B103980F
:10504000404203909A49019880FB0101800F40EA99
:10505000810001909649029880FB0110820042EA8B
:10506000917002909249039880FB0110820042EAFD
:10507000917003900198000E8DF800000198000CCB
:105080008DF801000198000A8DF802000198C0B265
:105090008DF803006A4604214FF47470FFF734FB67
:1050A00018B14FF0FF3004B010BD0298000E8DF81B
:1050B00000000298000C8DF801000298000A8DF89B
:1050C00002000298C0B28DF803006A4604214FF432
:1050D0007570FFF719FB10B14FF0FF30E3E703984D
:1050E000000E8DF800000398000C8DF80100039865
:1050F000000A8DF802000398C0B28DF803006A46DA
:1051000004214FF47670FFF7FFFACCE770B588B052
:10511000064601A8FEF7FFFCBDF804000021C90304
:1051200041EA5045C4036148007A00F0030056F894
:10513000200005905D48007A00F0040010B1059849
:10514000404205905948007AC0F3C10056F820004B
:1051500006905648007A00F0200010B106984042B0
:1051600006905248007AC0F3811056F8200007904C
:105170004E48008900F4807010B1079840420790B3
:105180000598C117A0FB042301FB043100FB0510A7
:10519000810041EA927005900698C117A0FB042394
:1051A00001FB043100FB0510810041EA927006907A
:1051B0000798C117A0FB042301FB043100FB051075
:1051C000810041EA927007900598000E8DF8080062
:1051D0000598000C8DF809000598000A8DF80A0062
:1051E0000598C0B28DF80B000698000E8DF80C00E3
:1051F0000698000C8DF80D000698000A8DF80E0038
:105200000698C0B28DF80F000798000E8DF81000B8
:105210000798000C8DF811000798000A8DF812000D
:105220000798C0B28DF8130002AA0C214FF4257024
:10523000FFF76AFA08B070BD30B585B004461DA20C
:1052400007CA02AB07C3C82C03DD4FF0FF3005B01F
:1052500030BDC82090FBF4F0401E85B2280A8DF8BE
:105260000000E8B28DF801006A46022140F21620E3
:10527000FFF74AFA10B14FF0FF30E8E702AA0C211D
:1052800040F6C120FFF740FA10B14FF0FF30DEE7E3
:10529000064884810020DAE798AF00084CCD6C0006
:1052A0000CC92C003656760026466600F80500200C
:1052B00009E3CA02FEF2ABC4AAF1DFDFBBAFDFDF56
:1052C0000146FC4880890880002070472DE9FC4792
:1052D00006460F4606F0070010B1B7F5C86F03DDAC
:1052E0004FF0FF30BDE8FC87384603F0EDFF814604
:1052F000F14903F09FFE80466846FEF790FB9DF85B
:105300000000022806D0042816D0082826D010282D
:1053100048D135E04FF08D41404604F01DF88146FC
:1053200003F09AFF84B2E549404604F015F881463F
:1053300003F092FF85B238E04FF08C41404604F014
:105340000BF8814603F088FF84B2DD49404604F043
:1053500003F8814603F080FF85B226E04FF08B41D1
:10536000404603F0F9FF814603F076FF84B2D54949
:10537000404603F0F1FF814603F06EFF85B214E072
:105380004FF08A41404603F0E7FF814603F064FF97
:1053900084B2CD49404603F0DFFF814603F05CFF55
:1053A00085B202E04FF0FF309CE700BF20128DF87D
:1053B0000400E0B28DF8050028128DF80600E8B26E
:1053C0008DF8070006F00100A0B101AA02214FF4F8
:1053D000EA70FFF799F910B14FF0FF3082E70DF155
:1053E000060202214FF49270FFF78EF910B14FF0D0
:1053F000FF3077E706F00200A0B101AA02214FF4C6
:10540000EC70FFF781F910B14FF0FF306AE70DF152
:10541000060202214FF49470FFF776F910B14FF0B5
:10542000FF305FE706F00400A0B101AA02214FF4AB
:10543000EE70FFF769F910B14FF0FF3052E70DF150
:10544000060202214FF49670FFF75EF910B14FF09B
:10545000FF3047E7002045E738B5044600200090BC
:1054600004F0010020B19DF8000040F030000090F1
:1054700004F0020020B19DF8000040F00C00009004
:1054800004F0040020B19DF8000040F003000090FB
:105490006A4601214FF4A470FFF736F938BD38B5DC
:1054A0000446012C01DA012402E0042C00DD04246E
:1054B000601EC0B200906A46012140F24F10FFF713
:1054C00023F938BD38B50446052094FBF0F085B2C9
:1054D00028128DF80000E8B28DF801006A4602211A
:1054E0004FF4EF70FFF710F938BD38B504460520CA
:1054F00094FBF0F085B228128DF80000E8B28DF828
:1055000001006A4602214FF4ED70FFF7FDF838BD47
:10551000F8B505460E464FF47A7095FBF0F000FBA7
:1055200006F4200E8DF80000200C8DF80100200AF2
:105530008DF80200E0B28DF803006A4604214FF4B2
:10554000AE70FFF7E1F8F8BD38B50446052094FBCE
:10555000F0F084B220128DF80000E0B28DF8010066
:105560006A4602214FF4AD70FFF7CEF838BD38B56A
:105570000446052094FBF0F084B220128DF8000060
:10558000E0B28DF801006A4602214FF4AC70FFF7DB
:10559000BBF838BD38B5044614B94FF0FF3038BDFC
:1055A0006A4604214FF45870FFF7EBF810B14FF042
:1055B000FF30F4E79DF8000000069DF8011040EA76
:1055C00001409DF8021040EA01209DF803100843B5
:1055D00020600020E3E738B50446200E8DF8000077
:1055E000200C8DF80100200A8DF80200E0B28DF841
:1055F00003006A4604214FF45870FFF785F838BD60
:1056000038B5044614B94FF0FF3038BD6A4604215E
:105610004FF47170FFF7B5F810B14FF0FF30F4E7B9
:105620009DF8000000069DF8011040EA01409DF839
:10563000021040EA01209DF80310084300EB8000AF
:10564000800020600020E0E738B504461420B4FB59
:10565000F0F4200E8DF80000200C8DF80100200AD7
:105660008DF80200E0B28DF803006A4604214FF481
:105670007170FFF749F838BD38B5044664B1202091
:105680008DF8000028208DF8010030208DF80200F0
:1056900038208DF8030004E0A3220421684601F0BD
:1056A0003BF86A46042140F69E20FFF72DF8FDF7EF
:1056B00085FC38BDF8050020000048430000404646
:1056C0000000C045000040450000C04438B5044615
:1056D00064B1C0208DF80000C2208DF80100C42004
:1056E0008DF80200C6208DF8030004E08B2204210F
:1056F000684601F011F86A46042140F69820FFF749
:1057000003F8FDF75BFC38BD3EB504466CB1FDA166
:10571000D1E900208968CDE9002002916A4609217B
:105720004FF49760FEF7F0FF3EBDF9A2D2E90010FA
:105730009268CDE9010200916A4609214FF4976011
:10574000FEF7E2FFF0E73EB5044602208DF80000C8
:10575000CA208DF80100E3208DF8020009208DF8A1
:1057600003006A4604216820FEF7CEFFA3208DF8CF
:10577000000004F0400048B1C0208DF80100C820AE
:105780008DF80200C2208DF8030006E0A3208DF8FA
:1057900001008DF802008DF8030004F4C07048B1D8
:1057A000C4208DF80400CC208DF80500C6208DF8AB
:1057B000060006E0A3208DF804008DF805008DF8A2
:1057C0000600A3208DF807008DF808008DF8090069
:1057D0006A460A2140F6A720FEF796FF04F0030070
:1057E00018B120208DF8000002E0D8208DF80000CC
:1057F0006A46012140F6B620FEF786FF04F020003D
:1058000018B10120FFF780FF02E00020FFF77CFFC6
:1058100004F4C07008B304F4807060B1B2208DF855
:1058200000008B208DF80100B6208DF802009B202F
:105830008DF803000BE0B0208DF8000080208DF87B
:105840000100B4208DF8020090208DF803006A4614
:10585000042140F6A220FEF757FF04F0010020B318
:10586000F8208DF800006A4601214FF40B60FEF726
:105870004BFFFA210720FFF729FD0720FFF7ECFD7A
:105880000120FFF70CFE6420FFF71CFE4FF4FA70B6
:10589000FFF72BFEC821A148FFF73AFE2820FFF7AB
:1058A00053FE0A20FFF763FE08E0D8208DF80000C1
:1058B0006A4601214FF40B60FEF726FF04F0020058
:1058C00018B1D9208DF8000002E0D8208DF8000032
:1058D0006A46012140F23D70FEF716FF04F0040015
:1058E00018B10120FFF7F2FE02E00020FFF7EEFE04
:1058F00004F0100018B10120FFF7BEFE02E0002006
:10590000FFF7BAFE44F0080085494881FDF756FBD1
:1059100000208349887304F0400018B10846807B5A
:10592000801D887304F4C07020B17D48807B801D89
:105930007B49887304F0140020B17948807B1030D3
:105940007749887304F0030020B17548807B001DFF
:105950007349887300203EBD014671484089088024
:10596000002070472DE9F0410446E07800F0C006C1
:10597000E07800F03F05607800F0010098B1EF108A
:105980002846E91705EB5171C910A5EBC101491C67
:1059900001F0FF086248006820B161484146026892
:1059A0003846904700BF607800F0080030B15C488E
:1059B000406818B1B0115A4A516888470020BDE8C4
:1059C000F08110B586B0044656A207CA03AB07C3E0
:1059D00057A207CA8DE80700012C09D0022C0ED16E
:1059E00003AA0B2140F68220FEF78EFE06B010BD02
:1059F0006A460B2140F68220FEF786FEF6E74FF05E
:105A0000FF30F3E72DE9F04F8DB007468846154685
:105A10009946DDE9166B0024002030804049887BE0
:105A20005A4605A9FEF7D3F918B1601E0DB0BDE8BE
:105A3000F08F3B48807A00F01400002861D09DF878
:105A4000140000069DF8151040EA01409DF816105C
:105A500040EA01209DF81710084328609DF81800BF
:105A600000069DF8191040EA01409DF81A1040EA1E
:105A700001209DF81B10084368609DF81C0000067B
:105A80009DF81D1040EA01409DF81E1040EA0120DB
:105A90009DF81F100843A8609DF8200000069DF89F
:105AA000211040EA01409DF8221040EA01209DF8B3
:105AB00023100843E86004F11000C4B22868001401
:105AC0000190686800140290A86800140390E868C8
:105AD0000014049001984043029901FB01000399CE
